{
  "_format": "hh-sol-artifact-1",
  "contractName": "Staking",
  "sourceName": "contracts/Stakingmanager.sol",
  "abi": [
    {
      "inputs": [
        {
          "internalType": "address",
          "name": "_Stakingtoken",
          "type": "address"
        },
        {
          "internalType": "address",
          "name": "_Rewardtoken",
          "type": "address"
        }
      ],
      "stateMutability": "nonpayable",
      "type": "constructor"
    },
    {
      "anonymous": false,
      "inputs": [
        {
          "indexed": false,
          "internalType": "uint256",
          "name": "amount",
          "type": "uint256"
        },
        {
          "indexed": false,
          "internalType": "uint256",
          "name": "lengthInDays",
          "type": "uint256"
        }
      ],
      "name": "AddRewards",
      "type": "event"
    },
    {
      "anonymous": false,
      "inputs": [
        {
          "indexed": true,
          "internalType": "address",
          "name": "user",
          "type": "address"
        },
        {
          "indexed": false,
          "internalType": "uint256",
          "name": "amount",
          "type": "uint256"
        }
      ],
      "name": "ClaimReward",
      "type": "event"
    },
    {
      "anonymous": false,
      "inputs": [
        {
          "indexed": true,
          "internalType": "address",
          "name": "user",
          "type": "address"
        },
        {
          "indexed": false,
          "internalType": "uint256",
          "name": "amount",
          "type": "uint256"
        }
      ],
      "name": "Deposit",
      "type": "event"
    },
    {
      "anonymous": false,
      "inputs": [
        {
          "indexed": true,
          "internalType": "address",
          "name": "previousOwner",
          "type": "address"
        },
        {
          "indexed": true,
          "internalType": "address",
          "name": "newOwner",
          "type": "address"
        }
      ],
      "name": "OwnershipTransferred",
      "type": "event"
    },
    {
      "anonymous": false,
      "inputs": [
        {
          "indexed": true,
          "internalType": "address",
          "name": "user",
          "type": "address"
        },
        {
          "indexed": false,
          "internalType": "uint256",
          "name": "amount",
          "type": "uint256"
        }
      ],
      "name": "Withdraw",
      "type": "event"
    },
    {
      "inputs": [],
      "name": "Claim",
      "outputs": [],
      "stateMutability": "nonpayable",
      "type": "function"
    },
    {
      "inputs": [
        {
          "internalType": "address",
          "name": "_user",
          "type": "address"
        }
      ],
      "name": "PendingRewards",
      "outputs": [
        {
          "internalType": "uint256",
          "name": "",
          "type": "uint256"
        }
      ],
      "stateMutability": "view",
      "type": "function"
    },
    {
      "inputs": [],
      "name": "RewardToken",
      "outputs": [
        {
          "internalType": "contract IERC20",
          "name": "",
          "type": "address"
        }
      ],
      "stateMutability": "view",
      "type": "function"
    },
    {
      "inputs": [],
      "name": "StakingToken",
      "outputs": [
        {
          "internalType": "contract IERC20",
          "name": "",
          "type": "address"
        }
      ],
      "stateMutability": "view",
      "type": "function"
    },
    {
      "inputs": [],
      "name": "accumulatedRewardPerShare",
      "outputs": [
        {
          "internalType": "uint256",
          "name": "",
          "type": "uint256"
        }
      ],
      "stateMutability": "view",
      "type": "function"
    },
    {
      "inputs": [
        {
          "internalType": "uint256",
          "name": "_rewardAmount",
          "type": "uint256"
        },
        {
          "internalType": "uint256",
          "name": "_lengthindays",
          "type": "uint256"
        }
      ],
      "name": "addRewards",
      "outputs": [],
      "stateMutability": "nonpayable",
      "type": "function"
    },
    {
      "inputs": [
        {
          "internalType": "uint256",
          "name": "_amount",
          "type": "uint256"
        }
      ],
      "name": "deposit",
      "outputs": [],
      "stateMutability": "nonpayable",
      "type": "function"
    },
    {
      "inputs": [],
      "name": "getFrontendView",
      "outputs": [
        {
          "internalType": "uint256",
          "name": "_rewardpersecond",
          "type": "uint256"
        },
        {
          "internalType": "uint256",
          "name": "_secondsleft",
          "type": "uint256"
        },
        {
          "internalType": "uint256",
          "name": "_deposited",
          "type": "uint256"
        },
        {
          "internalType": "uint256",
          "name": "_pending",
          "type": "uint256"
        }
      ],
      "stateMutability": "view",
      "type": "function"
    },
    {
      "inputs": [],
      "name": "lastRewardTimeStamp",
      "outputs": [
        {
          "internalType": "uint256",
          "name": "",
          "type": "uint256"
        }
      ],
      "stateMutability": "view",
      "type": "function"
    },
    {
      "inputs": [],
      "name": "owner",
      "outputs": [
        {
          "internalType": "address",
          "name": "",
          "type": "address"
        }
      ],
      "stateMutability": "view",
      "type": "function"
    },
    {
      "inputs": [],
      "name": "renounceOwnership",
      "outputs": [],
      "stateMutability": "nonpayable",
      "type": "function"
    },
    {
      "inputs": [],
      "name": "rewardPerTOken",
      "outputs": [
        {
          "internalType": "uint256",
          "name": "",
          "type": "uint256"
        }
      ],
      "stateMutability": "view",
      "type": "function"
    },
    {
      "inputs": [],
      "name": "rewardPeriodEndTimestamp",
      "outputs": [
        {
          "internalType": "uint256",
          "name": "",
          "type": "uint256"
        }
      ],
      "stateMutability": "view",
      "type": "function"
    },
    {
      "inputs": [],
      "name": "totalStaked",
      "outputs": [
        {
          "internalType": "uint256",
          "name": "",
          "type": "uint256"
        }
      ],
      "stateMutability": "view",
      "type": "function"
    },
    {
      "inputs": [
        {
          "internalType": "address",
          "name": "newOwner",
          "type": "address"
        }
      ],
      "name": "transferOwnership",
      "outputs": [],
      "stateMutability": "nonpayable",
      "type": "function"
    },
    {
      "inputs": [],
      "name": "updateRewards",
      "outputs": [],
      "stateMutability": "nonpayable",
      "type": "function"
    },
    {
      "inputs": [
        {
          "internalType": "uint256",
          "name": "_amount",
          "type": "uint256"
        }
      ],
      "name": "withdraw",
      "outputs": [],
      "stateMutability": "nonpayable",
      "type": "function"
    }
  ],
  "bytecode": "0x60806040523480156200001157600080fd5b5060405162001fd338038062001fd38339818101604052810190620000379190620001ce565b60016000819055506200005f62000053620000e960201b60201c565b620000f160201b60201c565b81600460006101000a81548173ffffffffffffffffffffffffffffffffffffffff021916908373ffffffffffffffffffffffffffffffffffffffff16021790555080600560006101000a81548173ffffffffffffffffffffffffffffffffffffffff021916908373ffffffffffffffffffffffffffffffffffffffff16021790555050506200025d565b600033905090565b6000600160009054906101000a900473ffffffffffffffffffffffffffffffffffffffff16905081600160006101000a81548173ffffffffffffffffffffffffffffffffffffffff021916908373ffffffffffffffffffffffffffffffffffffffff1602179055508173ffffffffffffffffffffffffffffffffffffffff168173ffffffffffffffffffffffffffffffffffffffff167f8be0079c531659141344cd1fd0a4f28419497f9722a3daafe3b4186f6b6457e060405160405180910390a35050565b600081519050620001c88162000243565b92915050565b60008060408385031215620001e257600080fd5b6000620001f285828601620001b7565b92505060206200020585828601620001b7565b9150509250929050565b60006200021c8262000223565b9050919050565b600073ffffffffffffffffffffffffffffffffffffffff82169050919050565b6200024e816200020f565b81146200025a57600080fd5b50565b611d66806200026d6000396000f3fe608060405234801561001057600080fd5b506004361061010b5760003560e01c8063817b1cd2116100a2578063be5af96611610071578063be5af9661461024d578063cfc2b3201461026b578063f1e9f1e514610289578063f2fde38b146102a7578063fc41aa09146102c35761010b565b8063817b1cd2146101d45780638da5cb5b146101f2578063abed2e7f14610210578063b6b55f25146102315761010b565b80633a20d203116100de5780633a20d203146101725780633e158b0c14610190578063715018a61461019a57806376533ee8146101a45761010b565b80632e1a7d4d146101105780633158952e1461012c578063356c72841461013657806336d4219514610154575b600080fd5b61012a6004803603810190610125919061164d565b6102df565b005b6101346106ae565b005b61013e6108bb565b60405161014b9190611930565b60405180910390f35b61015c6108c1565b6040516101699190611930565b60405180910390f35b61017a6108c7565b6040516101879190611930565b60405180910390f35b6101986108cd565b005b6101a26109b0565b005b6101be60048036038101906101b991906115fb565b6109c4565b6040516101cb9190611930565b60405180910390f35b6101dc610b24565b6040516101e99190611930565b60405180910390f35b6101fa610b2a565b60405161020791906117da565b60405180910390f35b610218610b54565b6040516102289493929190611974565b60405180910390f35b61024b6004803603810190610246919061164d565b610be9565b005b61025561106e565b6040516102629190611855565b60405180910390f35b610273611094565b6040516102809190611930565b60405180910390f35b61029161109a565b60405161029e9190611855565b60405180910390f35b6102c160048036038101906102bc91906115fb565b6110c0565b005b6102dd60048036038101906102d8919061169f565b611144565b005b60026000541415610325576040517f08c379a000000000000000000000000000000000000000000000000000000000815260040161031c90611910565b60405180910390fd5b60026000819055506000600260003373ffffffffffffffffffffffffffffffffffffffff1673ffffffffffffffffffffffffffffffffffffffff168152602001908152602001600020905081816000015410156103b7576040517f08c379a00000000000000000000000000000000000000000000000000000000081526004016103ae90611890565b60405180910390fd5b6103bf6108cd565b6000610418826001015461040a600a6103fc620f42406103ee600954896000015461140390919063ffffffff16565b61141990919063ffffffff16565b61141990919063ffffffff16565b61142f90919063ffffffff16565b9050600560009054906101000a900473ffffffffffffffffffffffffffffffffffffffff1673ffffffffffffffffffffffffffffffffffffffff1663a9059cbb33836040518363ffffffff1660e01b815260040161047792919061182c565b602060405180830381600087803b15801561049157600080fd5b505af11580156104a5573d6000803e3d6000fd5b505050506040513d601f19601f820116820180604052508101906104c99190611624565b6104d257600080fd5b3373ffffffffffffffffffffffffffffffffffffffff167fba8de60c3403ec381d1d484652ea1980e3c3e56359195c92525bff4ce47ad98e826040516105189190611930565b60405180910390a261053783836000015461142f90919063ffffffff16565b82600001819055506105548360035461142f90919063ffffffff16565b60038190555061059b600a61058d620f424061057f600954876000015461140390919063ffffffff16565b61141990919063ffffffff16565b61141990919063ffffffff16565b8260010181905550600460009054906101000a900473ffffffffffffffffffffffffffffffffffffffff1673ffffffffffffffffffffffffffffffffffffffff1663a9059cbb33856040518363ffffffff1660e01b815260040161060092919061182c565b602060405180830381600087803b15801561061a57600080fd5b505af115801561062e573d6000803e3d6000fd5b505050506040513d601f19601f820116820180604052508101906106529190611624565b503373ffffffffffffffffffffffffffffffffffffffff167f884edad9ce6fa2440d8a54cc123490eb96d2768479d49ff9c7366125a9424364846040516106999190611930565b60405180910390a25050600160008190555050565b6000600260003373ffffffffffffffffffffffffffffffffffffffff1673ffffffffffffffffffffffffffffffffffffffff168152602001908152602001600020905060008160000154141561070457506108b9565b61070c6108cd565b60006107658260010154610757600a610749620f424061073b600954896000015461140390919063ffffffff16565b61141990919063ffffffff16565b61141990919063ffffffff16565b61142f90919063ffffffff16565b9050600560009054906101000a900473ffffffffffffffffffffffffffffffffffffffff1673ffffffffffffffffffffffffffffffffffffffff1663a9059cbb33836040518363ffffffff1660e01b81526004016107c492919061182c565b602060405180830381600087803b1580156107de57600080fd5b505af11580156107f2573d6000803e3d6000fd5b505050506040513d601f19601f820116820180604052508101906108169190611624565b61081f57600080fd5b3373ffffffffffffffffffffffffffffffffffffffff167fba8de60c3403ec381d1d484652ea1980e3c3e56359195c92525bff4ce47ad98e826040516108659190611930565b60405180910390a26108ae600a6108a0620f4240610892600954876000015461140390919063ffffffff16565b61141990919063ffffffff16565b61141990919063ffffffff16565b826001018190555050505b565b60075481565b60095481565b60065481565b60075442116108db576109ae565b600060035414806108ef5750600854600754115b1561090057426007819055506109ae565b600060085442111561091657600854905061091a565b4290505b60006109316007548361142f90919063ffffffff16565b9050600061094a6006548361140390919063ffffffff16565b905061098a61097960035461096b620f42408561140390919063ffffffff16565b61141990919063ffffffff16565b60095461144590919063ffffffff16565b600981905550426007819055506008544211156109aa5760006006819055505b5050505b565b6109b861145b565b6109c260006114d9565b565b600080600260003373ffffffffffffffffffffffffffffffffffffffff1673ffffffffffffffffffffffffffffffffffffffff16815260200190815260200160002090506000600954905060075442118015610a24575060085460075411155b8015610a335750600060035414155b15610ac6576000600854421115610a4e576008549050610a52565b4290505b6000610a696007548361142f90919063ffffffff16565b90506000610a826006548361140390919063ffffffff16565b9050610ac0610ab1600354610aa3620f42408561140390919063ffffffff16565b61141990919063ffffffff16565b8561144590919063ffffffff16565b93505050505b610b1b8260010154610b0d600a610aff620f4240610af187896000015461140390919063ffffffff16565b61141990919063ffffffff16565b61141990919063ffffffff16565b61142f90919063ffffffff16565b92505050919050565b60035481565b6000600160009054906101000a900473ffffffffffffffffffffffffffffffffffffffff16905090565b6000806000806008544211610b9357610b784260085461142f90919063ffffffff16565b9250610b90600a60065461141990919063ffffffff16565b93505b600260003373ffffffffffffffffffffffffffffffffffffffff1673ffffffffffffffffffffffffffffffffffffffff168152602001908152602001600020600001549150610be1336109c4565b905090919293565b60026000541415610c2f576040517f08c379a0000000000000000000000000000000000000000000000000000000008152600401610c2690611910565b60405180910390fd5b60026000819055506000600260003373ffffffffffffffffffffffffffffffffffffffff1673ffffffffffffffffffffffffffffffffffffffff168152602001908152602001600020905081600460009054906101000a900473ffffffffffffffffffffffffffffffffffffffff1673ffffffffffffffffffffffffffffffffffffffff166370a08231336040518263ffffffff1660e01b8152600401610cd691906117da565b60206040518083038186803b158015610cee57600080fd5b505afa158015610d02573d6000803e3d6000fd5b505050506040513d601f19601f82011682018060405250810190610d269190611676565b1015610d3157600080fd5b610d396108cd565b600081600001541115610edf576000610d9f8260010154610d91600a610d83620f4240610d75600954896000015461140390919063ffffffff16565b61141990919063ffffffff16565b61141990919063ffffffff16565b61142f90919063ffffffff16565b9050600560009054906101000a900473ffffffffffffffffffffffffffffffffffffffff1673ffffffffffffffffffffffffffffffffffffffff1663a9059cbb33836040518363ffffffff1660e01b8152600401610dfe92919061182c565b602060405180830381600087803b158015610e1857600080fd5b505af1158015610e2c573d6000803e3d6000fd5b505050506040513d601f19601f82011682018060405250810190610e509190611624565b610e8f576040517f08c379a0000000000000000000000000000000000000000000000000000000008152600401610e86906118f0565b60405180910390fd5b3373ffffffffffffffffffffffffffffffffffffffff167fba8de60c3403ec381d1d484652ea1980e3c3e56359195c92525bff4ce47ad98e82604051610ed59190611930565b60405180910390a2505b610ef682826000015461144590919063ffffffff16565b8160000181905550610f138260035461144590919063ffffffff16565b600381905550610f5a600a610f4c620f4240610f3e600954866000015461140390919063ffffffff16565b61141990919063ffffffff16565b61141990919063ffffffff16565b8160010181905550600460009054906101000a900473ffffffffffffffffffffffffffffffffffffffff1673ffffffffffffffffffffffffffffffffffffffff166323b872dd3330856040518463ffffffff1660e01b8152600401610fc1939291906117f5565b602060405180830381600087803b158015610fdb57600080fd5b505af1158015610fef573d6000803e3d6000fd5b505050506040513d601f19601f820116820180604052508101906110139190611624565b503373ffffffffffffffffffffffffffffffffffffffff167fe1fffcc4923d04b559f4d29a8bfc6cda04eb5b0d3c460751c2402c5c5cc9109c8360405161105a9190611930565b60405180910390a250600160008190555050565b600460009054906101000a900473ffffffffffffffffffffffffffffffffffffffff1681565b60085481565b600560009054906101000a900473ffffffffffffffffffffffffffffffffffffffff1681565b6110c861145b565b600073ffffffffffffffffffffffffffffffffffffffff168173ffffffffffffffffffffffffffffffffffffffff161415611138576040517f08c379a000000000000000000000000000000000000000000000000000000000815260040161112f90611870565b60405180910390fd5b611141816114d9565b50565b61114c61145b565b60026000541415611192576040517f08c379a000000000000000000000000000000000000000000000000000000000815260040161118990611910565b60405180910390fd5b600260008190555081600460009054906101000a900473ffffffffffffffffffffffffffffffffffffffff1673ffffffffffffffffffffffffffffffffffffffff166370a08231336040518263ffffffff1660e01b81526004016111f691906117da565b60206040518083038186803b15801561120e57600080fd5b505afa158015611222573d6000803e3d6000fd5b505050506040513d601f19601f820116820180604052508101906112469190611676565b101561125157600080fd5b6008544211611295576040517f08c379a000000000000000000000000000000000000000000000000000000000815260040161128c906118d0565b60405180910390fd5b61129d6108cd565b6112c56112b6620151808361140390919063ffffffff16565b4261144590919063ffffffff16565b600881905550611306620151806112f8836112ea600a8761140390919063ffffffff16565b61141990919063ffffffff16565b61141990919063ffffffff16565b600681905550600460009054906101000a900473ffffffffffffffffffffffffffffffffffffffff1673ffffffffffffffffffffffffffffffffffffffff166323b872dd3330856040518463ffffffff1660e01b815260040161136b939291906117f5565b602060405180830381600087803b15801561138557600080fd5b505af1158015611399573d6000803e3d6000fd5b505050506040513d601f19601f820116820180604052508101906113bd9190611624565b507f035a6817755d9d163087d4649b27315908b801d1f5e33071a44f1fc0f7a871b382826040516113ef92919061194b565b60405180910390a160016000819055505050565b600081836114119190611a51565b905092915050565b600081836114279190611a20565b905092915050565b6000818361143d9190611aab565b905092915050565b6000818361145391906119ca565b905092915050565b61146361159f565b73ffffffffffffffffffffffffffffffffffffffff16611481610b2a565b73ffffffffffffffffffffffffffffffffffffffff16146114d7576040517f08c379a00000000000000000000000000000000000000000000000000000000081526004016114ce906118b0565b60405180910390fd5b565b6000600160009054906101000a900473ffffffffffffffffffffffffffffffffffffffff16905081600160006101000a81548173ffffffffffffffffffffffffffffffffffffffff021916908373ffffffffffffffffffffffffffffffffffffffff1602179055508173ffffffffffffffffffffffffffffffffffffffff168173ffffffffffffffffffffffffffffffffffffffff167f8be0079c531659141344cd1fd0a4f28419497f9722a3daafe3b4186f6b6457e060405160405180910390a35050565b600033905090565b6000813590506115b681611ceb565b92915050565b6000815190506115cb81611d02565b92915050565b6000813590506115e081611d19565b92915050565b6000815190506115f581611d19565b92915050565b60006020828403121561160d57600080fd5b600061161b848285016115a7565b91505092915050565b60006020828403121561163657600080fd5b6000611644848285016115bc565b91505092915050565b60006020828403121561165f57600080fd5b600061166d848285016115d1565b91505092915050565b60006020828403121561168857600080fd5b6000611696848285016115e6565b91505092915050565b600080604083850312156116b257600080fd5b60006116c0858286016115d1565b92505060206116d1858286016115d1565b9150509250929050565b6116e481611adf565b82525050565b6116f381611b27565b82525050565b60006117066026836119b9565b915061171182611ba9565b604082019050919050565b6000611729602b836119b9565b915061173482611bf8565b604082019050919050565b600061174c6020836119b9565b915061175782611c47565b602082019050919050565b600061176f601f836119b9565b915061177a82611c70565b602082019050919050565b6000611792600f836119b9565b915061179d82611c99565b602082019050919050565b60006117b5601f836119b9565b91506117c082611cc2565b602082019050919050565b6117d481611b1d565b82525050565b60006020820190506117ef60008301846116db565b92915050565b600060608201905061180a60008301866116db565b61181760208301856116db565b61182460408301846117cb565b949350505050565b600060408201905061184160008301856116db565b61184e60208301846117cb565b9392505050565b600060208201905061186a60008301846116ea565b92915050565b60006020820190508181036000830152611889816116f9565b9050919050565b600060208201905081810360008301526118a98161171c565b9050919050565b600060208201905081810360008301526118c98161173f565b9050919050565b600060208201905081810360008301526118e981611762565b9050919050565b6000602082019050818103600083015261190981611785565b9050919050565b60006020820190508181036000830152611929816117a8565b9050919050565b600060208201905061194560008301846117cb565b92915050565b600060408201905061196060008301856117cb565b61196d60208301846117cb565b9392505050565b600060808201905061198960008301876117cb565b61199660208301866117cb565b6119a360408301856117cb565b6119b060608301846117cb565b95945050505050565b600082825260208201905092915050565b60006119d582611b1d565b91506119e083611b1d565b9250827fffffffffffffffffffffffffffffffffffffffffffffffffffffffffffffffff03821115611a1557611a14611b4b565b5b828201905092915050565b6000611a2b82611b1d565b9150611a3683611b1d565b925082611a4657611a45611b7a565b5b828204905092915050565b6000611a5c82611b1d565b9150611a6783611b1d565b9250817fffffffffffffffffffffffffffffffffffffffffffffffffffffffffffffffff0483118215151615611aa057611a9f611b4b565b5b828202905092915050565b6000611ab682611b1d565b9150611ac183611b1d565b925082821015611ad457611ad3611b4b565b5b828203905092915050565b6000611aea82611afd565b9050919050565b60008115159050919050565b600073ffffffffffffffffffffffffffffffffffffffff82169050919050565b6000819050919050565b6000611b3282611b39565b9050919050565b6000611b4482611afd565b9050919050565b7f4e487b7100000000000000000000000000000000000000000000000000000000600052601160045260246000fd5b7f4e487b7100000000000000000000000000000000000000000000000000000000600052601260045260246000fd5b7f4f776e61626c653a206e6577206f776e657220697320746865207a65726f206160008201527f6464726573730000000000000000000000000000000000000000000000000000602082015250565b7f796f7520617265207769746864726177696e67206d6f7265207468616e20796f60008201527f75206465706f7369746564000000000000000000000000000000000000000000602082015250565b7f4f776e61626c653a2063616c6c6572206973206e6f7420746865206f776e6572600082015250565b7f63616e74207374616b65206265666f726520706572696f642066696e69736800600082015250565b7f7472616e73666572206661696c65640000000000000000000000000000000000600082015250565b7f5265656e7472616e637947756172643a207265656e7472616e742063616c6c00600082015250565b611cf481611adf565b8114611cff57600080fd5b50565b611d0b81611af1565b8114611d1657600080fd5b50565b611d2281611b1d565b8114611d2d57600080fd5b5056fea264697066735822122064d13c8989d0464ac26f7ca93639fda1080f2a3a10fc613e20939eb3c423ee0764736f6c63430008040033",
  "linkReferences": {},
  "deployedLinkReferences": {}
}